{
  "_format": "hh-sol-artifact-1",
  "contractName": "GovernorAlpha",
  "sourceName": "contracts/GovernorAlpha.sol",
  "abi": [
    {
      "inputs": [
        {
          "internalType": "address",
          "name": "timelock_",
          "type": "address"
        },
        {
          "internalType": "address",
          "name": "kartera_",
          "type": "address"
        },
        {
          "internalType": "address",
          "name": "guardian_",
          "type": "address"
        }
      ],
      "stateMutability": "nonpayable",
      "type": "constructor"
    },
    {
      "anonymous": false,
      "inputs": [
        {
          "indexed": false,
          "internalType": "uint256",
          "name": "id",
          "type": "uint256"
        }
      ],
      "name": "ProposalCanceled",
      "type": "event"
    },
    {
      "anonymous": false,
      "inputs": [
        {
          "indexed": false,
          "internalType": "uint256",
          "name": "id",
          "type": "uint256"
        },
        {
          "indexed": false,
          "internalType": "address",
          "name": "proposer",
          "type": "address"
        },
        {
          "indexed": false,
          "internalType": "address[]",
          "name": "targets",
          "type": "address[]"
        },
        {
          "indexed": false,
          "internalType": "uint256[]",
          "name": "values",
          "type": "uint256[]"
        },
        {
          "indexed": false,
          "internalType": "string[]",
          "name": "signatures",
          "type": "string[]"
        },
        {
          "indexed": false,
          "internalType": "bytes[]",
          "name": "calldatas",
          "type": "bytes[]"
        },
        {
          "indexed": false,
          "internalType": "uint256",
          "name": "startBlock",
          "type": "uint256"
        },
        {
          "indexed": false,
          "internalType": "uint256",
          "name": "endBlock",
          "type": "uint256"
        },
        {
          "indexed": false,
          "internalType": "string",
          "name": "description",
          "type": "string"
        }
      ],
      "name": "ProposalCreated",
      "type": "event"
    },
    {
      "anonymous": false,
      "inputs": [
        {
          "indexed": false,
          "internalType": "uint256",
          "name": "id",
          "type": "uint256"
        }
      ],
      "name": "ProposalExecuted",
      "type": "event"
    },
    {
      "anonymous": false,
      "inputs": [
        {
          "indexed": false,
          "internalType": "uint256",
          "name": "id",
          "type": "uint256"
        },
        {
          "indexed": false,
          "internalType": "uint256",
          "name": "eta",
          "type": "uint256"
        }
      ],
      "name": "ProposalQueued",
      "type": "event"
    },
    {
      "anonymous": false,
      "inputs": [
        {
          "indexed": false,
          "internalType": "address",
          "name": "voter",
          "type": "address"
        },
        {
          "indexed": false,
          "internalType": "uint256",
          "name": "proposalId",
          "type": "uint256"
        },
        {
          "indexed": false,
          "internalType": "bool",
          "name": "support",
          "type": "bool"
        },
        {
          "indexed": false,
          "internalType": "uint256",
          "name": "votes",
          "type": "uint256"
        }
      ],
      "name": "VoteCast",
      "type": "event"
    },
    {
      "inputs": [],
      "name": "BALLOT_TYPEHASH",
      "outputs": [
        {
          "internalType": "bytes32",
          "name": "",
          "type": "bytes32"
        }
      ],
      "stateMutability": "view",
      "type": "function"
    },
    {
      "inputs": [],
      "name": "DOMAIN_TYPEHASH",
      "outputs": [
        {
          "internalType": "bytes32",
          "name": "",
          "type": "bytes32"
        }
      ],
      "stateMutability": "view",
      "type": "function"
    },
    {
      "inputs": [],
      "name": "__abdicate",
      "outputs": [],
      "stateMutability": "nonpayable",
      "type": "function"
    },
    {
      "inputs": [],
      "name": "__acceptAdmin",
      "outputs": [],
      "stateMutability": "nonpayable",
      "type": "function"
    },
    {
      "inputs": [
        {
          "internalType": "address",
          "name": "newPendingAdmin",
          "type": "address"
        },
        {
          "internalType": "uint256",
          "name": "eta",
          "type": "uint256"
        }
      ],
      "name": "__executeSetTimelockPendingAdmin",
      "outputs": [],
      "stateMutability": "nonpayable",
      "type": "function"
    },
    {
      "inputs": [
        {
          "internalType": "address",
          "name": "newPendingAdmin",
          "type": "address"
        },
        {
          "internalType": "uint256",
          "name": "eta",
          "type": "uint256"
        }
      ],
      "name": "__queueSetTimelockPendingAdmin",
      "outputs": [],
      "stateMutability": "nonpayable",
      "type": "function"
    },
    {
      "inputs": [
        {
          "internalType": "uint256",
          "name": "proposalId",
          "type": "uint256"
        }
      ],
      "name": "cancel",
      "outputs": [],
      "stateMutability": "nonpayable",
      "type": "function"
    },
    {
      "inputs": [
        {
          "internalType": "uint256",
          "name": "proposalId",
          "type": "uint256"
        },
        {
          "internalType": "bool",
          "name": "support",
          "type": "bool"
        }
      ],
      "name": "castVote",
      "outputs": [],
      "stateMutability": "nonpayable",
      "type": "function"
    },
    {
      "inputs": [
        {
          "internalType": "uint256",
          "name": "proposalId",
          "type": "uint256"
        },
        {
          "internalType": "bool",
          "name": "support",
          "type": "bool"
        },
        {
          "internalType": "uint8",
          "name": "v",
          "type": "uint8"
        },
        {
          "internalType": "bytes32",
          "name": "r",
          "type": "bytes32"
        },
        {
          "internalType": "bytes32",
          "name": "s",
          "type": "bytes32"
        }
      ],
      "name": "castVoteBySig",
      "outputs": [],
      "stateMutability": "nonpayable",
      "type": "function"
    },
    {
      "inputs": [
        {
          "internalType": "uint256",
          "name": "proposalId",
          "type": "uint256"
        }
      ],
      "name": "execute",
      "outputs": [],
      "stateMutability": "payable",
      "type": "function"
    },
    {
      "inputs": [
        {
          "internalType": "uint256",
          "name": "proposalId",
          "type": "uint256"
        }
      ],
      "name": "getActions",
      "outputs": [
        {
          "internalType": "address[]",
          "name": "targets",
          "type": "address[]"
        },
        {
          "internalType": "uint256[]",
          "name": "values",
          "type": "uint256[]"
        },
        {
          "internalType": "string[]",
          "name": "signatures",
          "type": "string[]"
        },
        {
          "internalType": "bytes[]",
          "name": "calldatas",
          "type": "bytes[]"
        }
      ],
      "stateMutability": "view",
      "type": "function"
    },
    {
      "inputs": [
        {
          "internalType": "uint256",
          "name": "proposalId",
          "type": "uint256"
        },
        {
          "internalType": "address",
          "name": "voter",
          "type": "address"
        }
      ],
      "name": "getReceipt",
      "outputs": [
        {
          "components": [
            {
              "internalType": "bool",
              "name": "hasVoted",
              "type": "bool"
            },
            {
              "internalType": "bool",
              "name": "support",
              "type": "bool"
            },
            {
              "internalType": "uint256",
              "name": "votes",
              "type": "uint256"
            }
          ],
          "internalType": "struct GovernorAlpha.Receipt",
          "name": "",
          "type": "tuple"
        }
      ],
      "stateMutability": "view",
      "type": "function"
    },
    {
      "inputs": [],
      "name": "guardian",
      "outputs": [
        {
          "internalType": "address",
          "name": "",
          "type": "address"
        }
      ],
      "stateMutability": "view",
      "type": "function"
    },
    {
      "inputs": [],
      "name": "kartera",
      "outputs": [
        {
          "internalType": "contract KarteraToken",
          "name": "",
          "type": "address"
        }
      ],
      "stateMutability": "view",
      "type": "function"
    },
    {
      "inputs": [
        {
          "internalType": "address",
          "name": "",
          "type": "address"
        }
      ],
      "name": "latestProposalIds",
      "outputs": [
        {
          "internalType": "uint256",
          "name": "",
          "type": "uint256"
        }
      ],
      "stateMutability": "view",
      "type": "function"
    },
    {
      "inputs": [],
      "name": "name",
      "outputs": [
        {
          "internalType": "string",
          "name": "",
          "type": "string"
        }
      ],
      "stateMutability": "view",
      "type": "function"
    },
    {
      "inputs": [],
      "name": "proposalCount",
      "outputs": [
        {
          "internalType": "uint256",
          "name": "",
          "type": "uint256"
        }
      ],
      "stateMutability": "view",
      "type": "function"
    },
    {
      "inputs": [],
      "name": "proposalMaxOperations",
      "outputs": [
        {
          "internalType": "uint256",
          "name": "",
          "type": "uint256"
        }
      ],
      "stateMutability": "pure",
      "type": "function"
    },
    {
      "inputs": [],
      "name": "proposalThreshold",
      "outputs": [
        {
          "internalType": "uint256",
          "name": "",
          "type": "uint256"
        }
      ],
      "stateMutability": "view",
      "type": "function"
    },
    {
      "inputs": [
        {
          "internalType": "uint256",
          "name": "",
          "type": "uint256"
        }
      ],
      "name": "proposals",
      "outputs": [
        {
          "internalType": "uint256",
          "name": "id",
          "type": "uint256"
        },
        {
          "internalType": "address",
          "name": "proposer",
          "type": "address"
        },
        {
          "internalType": "uint256",
          "name": "eta",
          "type": "uint256"
        },
        {
          "internalType": "uint256",
          "name": "startBlock",
          "type": "uint256"
        },
        {
          "internalType": "uint256",
          "name": "endBlock",
          "type": "uint256"
        },
        {
          "internalType": "uint256",
          "name": "forVotes",
          "type": "uint256"
        },
        {
          "internalType": "uint256",
          "name": "againstVotes",
          "type": "uint256"
        },
        {
          "internalType": "bool",
          "name": "canceled",
          "type": "bool"
        },
        {
          "internalType": "bool",
          "name": "executed",
          "type": "bool"
        }
      ],
      "stateMutability": "view",
      "type": "function"
    },
    {
      "inputs": [
        {
          "internalType": "address[]",
          "name": "targets",
          "type": "address[]"
        },
        {
          "internalType": "uint256[]",
          "name": "values",
          "type": "uint256[]"
        },
        {
          "internalType": "string[]",
          "name": "signatures",
          "type": "string[]"
        },
        {
          "internalType": "bytes[]",
          "name": "calldatas",
          "type": "bytes[]"
        },
        {
          "internalType": "string",
          "name": "description",
          "type": "string"
        }
      ],
      "name": "propose",
      "outputs": [
        {
          "internalType": "uint256",
          "name": "",
          "type": "uint256"
        }
      ],
      "stateMutability": "nonpayable",
      "type": "function"
    },
    {
      "inputs": [
        {
          "internalType": "uint256",
          "name": "proposalId",
          "type": "uint256"
        }
      ],
      "name": "queue",
      "outputs": [],
      "stateMutability": "nonpayable",
      "type": "function"
    },
    {
      "inputs": [],
      "name": "quorumVotes",
      "outputs": [
        {
          "internalType": "uint256",
          "name": "",
          "type": "uint256"
        }
      ],
      "stateMutability": "view",
      "type": "function"
    },
    {
      "inputs": [
        {
          "internalType": "uint256",
          "name": "proposalId",
          "type": "uint256"
        }
      ],
      "name": "state",
      "outputs": [
        {
          "internalType": "enum GovernorAlpha.ProposalState",
          "name": "",
          "type": "uint8"
        }
      ],
      "stateMutability": "view",
      "type": "function"
    },
    {
      "inputs": [],
      "name": "timelock",
      "outputs": [
        {
          "internalType": "contract TimelockInterface",
          "name": "",
          "type": "address"
        }
      ],
      "stateMutability": "view",
      "type": "function"
    },
    {
      "inputs": [],
      "name": "votingDelay",
      "outputs": [
        {
          "internalType": "uint256",
          "name": "",
          "type": "uint256"
        }
      ],
      "stateMutability": "pure",
      "type": "function"
    },
    {
      "inputs": [],
      "name": "votingPeriod",
      "outputs": [
        {
          "internalType": "uint256",
          "name": "",
          "type": "uint256"
        }
      ],
      "stateMutability": "pure",
      "type": "function"
    }
  ],
  "bytecode": "0x60806040523480156200001157600080fd5b50604051620032ff380380620032ff833981016040819052620000349162000077565b600080546001600160a01b039485166001600160a01b031991821617909155600180549385169382169390931790925560028054919093169116179055620000e3565b6000806000606084860312156200008c578283fd5b83516200009981620000ca565b6020850151909350620000ac81620000ca565b6040850151909250620000bf81620000ca565b809150509250925092565b6001600160a01b0381168114620000e057600080fd5b50565b61320c80620000f36000396000f3fe60806040526004361061019c5760003560e01c8063452a9320116100ec578063d33219b41161008a578063ddf0b00911610064578063ddf0b00914610441578063deaaa7cc14610461578063e23a9a5214610476578063fe0d94c1146104a35761019c565b8063d33219b4146103f7578063da35c6641461040c578063da95691a146104215761019c565b80637bdbe4d0116100c65780637bdbe4d0146101df57806391500671146103ad578063b58131b0146103cd578063b9a61961146103e25761019c565b8063452a9320146103635780634634c61f14610378578063760fbc13146103985761019c565b806321f43e42116101595780633932abb1116101335780633932abb1146102df5780633e4f49e6146102f457806340e58ee51461032157806343c49850146103415761019c565b806321f43e421461027a57806324bc1a641461029a578063328dd982146102af5761019c565b8063013cf08b146101a157806302a251a3146101df57806306fdde031461020157806315373e3d1461022357806317977c611461024557806320606b7014610265575b600080fd5b3480156101ad57600080fd5b506101c16101bc36600461242b565b6104b6565b6040516101d6999897969594939291906130cb565b60405180910390f35b3480156101eb57600080fd5b506101f461050f565b6040516101d69190612821565b34801561020d57600080fd5b50610216610514565b6040516101d69190612898565b34801561022f57600080fd5b5061024361023e36600461246f565b610546565b005b34801561025157600080fd5b506101f4610260366004612273565b610555565b34801561027157600080fd5b506101f4610567565b34801561028657600080fd5b5061024361029536600461228e565b61058b565b3480156102a657600080fd5b506101f4610672565b3480156102bb57600080fd5b506102cf6102ca36600461242b565b610709565b6040516101d694939291906127c9565b3480156102eb57600080fd5b506101f4610998565b34801561030057600080fd5b5061031461030f36600461242b565b61099d565b6040516101d69190612884565b34801561032d57600080fd5b5061024361033c36600461242b565b610b27565b34801561034d57600080fd5b50610356610d87565b6040516101d69190612683565b34801561036f57600080fd5b50610356610d96565b34801561038457600080fd5b5061024361039336600461249e565b610da5565b3480156103a457600080fd5b50610243610f57565b3480156103b957600080fd5b506102436103c836600461228e565b610f93565b3480156103d957600080fd5b506101f4611068565b3480156103ee57600080fd5b506102436110ba565b34801561040357600080fd5b5061035661113f565b34801561041857600080fd5b506101f461114e565b34801561042d57600080fd5b506101f461043c3660046122b8565b611154565b34801561044d57600080fd5b5061024361045c36600461242b565b61156b565b34801561046d57600080fd5b506101f46117d5565b34801561048257600080fd5b50610496610491366004612443565b6117f9565b6040516101d6919061300e565b6102436104b136600461242b565b61185d565b6004602052600090815260409020805460018201546002830154600784015460088501546009860154600a870154600b9097015495966001600160a01b0390951695939492939192909160ff8082169161010090041689565b600a90565b604051806040016040528060168152602001754b61727465726120476f7665726e6f7220416c70686160501b81525081565b610551338383611a22565b5050565b60056020526000908152604090205481565b7f8cad95687ba82c2ce50e74f7b754645e5117c3a5bec8151c0726d5857980a86681565b6002546001600160a01b031633146105be5760405162461bcd60e51b81526004016105b5906129dd565b60405180910390fd5b600080546040516001600160a01b0390911691630825f38f918391906105e8908790602001612683565b604051602081830303815290604052856040518563ffffffff1660e01b815260040161061794939291906126b0565b600060405180830381600087803b15801561063157600080fd5b505af1158015610645573d6000803e3d6000fd5b505050506040513d6000823e601f3d908101601f1916820160405261066d91908101906123b8565b505050565b60006019600160009054906101000a90046001600160a01b03166001600160a01b03166318160ddd6040518163ffffffff1660e01b815260040160206040518083038186803b1580156106c457600080fd5b505afa1580156106d8573d6000803e3d6000fd5b505050506040513d601f19601f820116820180604052508101906106fc91906123a0565b8161070357fe5b04905090565b6060806060806000600460008781526020019081526020016000209050806003018160040182600501836006018380548060200260200160405190810160405280929190818152602001828054801561078b57602002820191906000526020600020905b81546001600160a01b0316815260019091019060200180831161076d575b50505050509350828054806020026020016040519081016040528092919081815260200182805480156107dd57602002820191906000526020600020905b8154815260200190600101908083116107c9575b5050505050925081805480602002602001604051908101604052809291908181526020016000905b828210156108b05760008481526020908190208301805460408051601f600260001961010060018716150201909416939093049283018590048502810185019091528181529283018282801561089c5780601f106108715761010080835404028352916020019161089c565b820191906000526020600020905b81548152906001019060200180831161087f57829003601f168201915b505050505081526020019060010190610805565b50505050915080805480602002602001604051908101604052809291908181526020016000905b828210156109825760008481526020908190208301805460408051601f600260001961010060018716150201909416939093049283018590048502810185019091528181529283018282801561096e5780601f106109435761010080835404028352916020019161096e565b820191906000526020600020905b81548152906001019060200180831161095157829003601f168201915b5050505050815260200190600101906108d7565b5050505090509450945094509450509193509193565b600190565b600081600354101580156109b15750600082115b6109cd5760405162461bcd60e51b81526004016105b590612a4f565b6000828152600460205260409020600b81015460ff16156109f2576002915050610b22565b80600701544311610a07576000915050610b22565b80600801544311610a1c576001915050610b22565b80600a01548160090154111580610a3d5750610a36610672565b8160090154105b15610a4c576003915050610b22565b6002810154610a5f576004915050610b22565b600b810154610100900460ff1615610a7b576007915050610b22565b610b0c816002015460008054906101000a90046001600160a01b03166001600160a01b031663c1a287e26040518163ffffffff1660e01b815260040160206040518083038186803b158015610acf57600080fd5b505afa158015610ae3573d6000803e3d6000fd5b505050506040513d601f19601f82011682018060405250810190610b0791906123a0565b611bbe565b4210610b1c576006915050610b22565b60059150505b919050565b6000610b328261099d565b90506007816007811115610b4257fe5b1415610b605760405162461bcd60e51b81526004016105b590612ee9565b60008281526004602052604090206002546001600160a01b0316331480610c225750610b8a611068565b60018054838201546001600160a01b039182169263782d6fe19290911690610bb3904390611bea565b6040518363ffffffff1660e01b8152600401610bd0929190612697565b60206040518083038186803b158015610be857600080fd5b505afa158015610bfc573d6000803e3d6000fd5b505050506040513d601f19601f82011682018060405250810190610c2091906123a0565b105b610c3e5760405162461bcd60e51b81526004016105b590612cb5565b600b8101805460ff1916600117905560005b6003820154811015610d4a576000546003830180546001600160a01b039092169163591fcdfe919084908110610c8257fe5b6000918252602090912001546004850180546001600160a01b039092169185908110610caa57fe5b9060005260206000200154856005018581548110610cc457fe5b90600052602060002001866006018681548110610cdd57fe5b9060005260206000200187600201546040518663ffffffff1660e01b8152600401610d0c959493929190612790565b600060405180830381600087803b158015610d2657600080fd5b505af1158015610d3a573d6000803e3d6000fd5b505060019092019150610c509050565b507f789cf55be980739dad1d0699b93b58e806b51c9d96619bfa8fe0a28abaa7b30c83604051610d7a9190612821565b60405180910390a1505050565b6001546001600160a01b031681565b6002546001600160a01b031681565b6040805180820190915260168152754b61727465726120476f7665726e6f7220416c70686160501b60209091015260007f8cad95687ba82c2ce50e74f7b754645e5117c3a5bec8151c0726d5857980a8667fa46bf2d9e32105a6ad613102a7bb92dd9287330a454bc9c297eaadee250331e4610e1f611c12565b30604051602001610e33949392919061282a565b60405160208183030381529060405280519060200120905060007f8e25870c07e0b0b3884c78da52790939a455c275406c44ae8b434b692fb916ee8787604051602001610e829392919061284e565b60405160208183030381529060405280519060200120905060008282604051602001610eaf929190612668565b604051602081830303815290604052805190602001209050600060018288888860405160008152602001604052604051610eec9493929190612866565b6020604051602081039080840390855afa158015610f0e573d6000803e3d6000fd5b5050604051601f1901519150506001600160a01b038116610f415760405162461bcd60e51b81526004016105b590612e17565b610f4c818a8a611a22565b505050505050505050565b6002546001600160a01b03163314610f815760405162461bcd60e51b81526004016105b590612fb8565b600280546001600160a01b0319169055565b6002546001600160a01b03163314610fbd5760405162461bcd60e51b81526004016105b590612b68565b600080546040516001600160a01b0390911691633a66f90191839190610fe7908790602001612683565b604051602081830303815290604052856040518563ffffffff1660e01b815260040161101694939291906126b0565b602060405180830381600087803b15801561103057600080fd5b505af1158015611044573d6000803e3d6000fd5b505050506040513d601f19601f8201168201806040525081019061066d91906123a0565b60006064600160009054906101000a90046001600160a01b03166001600160a01b03166318160ddd6040518163ffffffff1660e01b815260040160206040518083038186803b1580156106c457600080fd5b6002546001600160a01b031633146110e45760405162461bcd60e51b81526004016105b5906128ab565b6000805460408051630e18b68160e01b815290516001600160a01b0390921692630e18b6819260048084019382900301818387803b15801561112557600080fd5b505af1158015611139573d6000803e3d6000fd5b50505050565b6000546001600160a01b031681565b60035481565b600061115e611068565b600180546001600160a01b03169063782d6fe190339061117f904390611bea565b6040518363ffffffff1660e01b815260040161119c929190612697565b60206040518083038186803b1580156111b457600080fd5b505afa1580156111c8573d6000803e3d6000fd5b505050506040513d601f19601f820116820180604052508101906111ec91906123a0565b116112095760405162461bcd60e51b81526004016105b590612dba565b8451865114801561121b575083518651145b8015611228575082518651145b6112445760405162461bcd60e51b81526004016105b590612c4b565b85516112625760405162461bcd60e51b81526004016105b590612d6e565b61126a61050f565b8651111561128a5760405162461bcd60e51b81526004016105b590612bd8565b3360009081526005602052604090205480156113075760006112ab8261099d565b905060018160078111156112bb57fe5b14156112d95760405162461bcd60e51b81526004016105b590612e66565b60008160078111156112e757fe5b14156113055760405162461bcd60e51b81526004016105b590612ae5565b505b600061131543610b07610998565b9050600061132582610b0761050f565b6003805460010190559050611338611d75565b604051806101a001604052806003548152602001336001600160a01b03168152602001600081526020018b81526020018a815260200189815260200188815260200184815260200183815260200160008152602001600081526020016000151581526020016000151581525090508060046000836000015181526020019081526020016000206000820151816000015560208201518160010160006101000a8154816001600160a01b0302191690836001600160a01b0316021790555060408201518160020155606082015181600301908051906020019061141b929190611dea565b5060808201518051611437916004840191602090910190611e4f565b5060a08201518051611453916005840191602090910190611e96565b5060c0820151805161146f916006840191602090910190611eef565b5060e082015181600701556101008201518160080155610120820151816009015561014082015181600a015561016082015181600b0160006101000a81548160ff02191690831515021790555061018082015181600b0160016101000a81548160ff02191690831515021790555090505080600001516005600083602001516001600160a01b03166001600160a01b03168152602001908152602001600020819055507f7d84a6263ae0d98d3329bd7b46bb4e8d6f98cd35a7adb45c274c8b7fd5ebd5e08160000151338c8c8c8c89898e60405161155599989796959493929190613033565b60405180910390a1519998505050505050505050565b60046115768261099d565b600781111561158157fe5b1461159e5760405162461bcd60e51b81526004016105b590612908565b600081815260046020818152604080842084548251630d48571f60e31b815292519195946115f39442946001600160a01b0390931693636a42b8f8938084019390829003018186803b158015610acf57600080fd5b905060005b600383015481101561179b5761179383600301828154811061161657fe5b6000918252602090912001546004850180546001600160a01b03909216918490811061163e57fe5b906000526020600020015485600501848154811061165857fe5b600091825260209182902001805460408051601f60026000196101006001871615020190941693909304928301859004850281018501909152818152928301828280156116e65780601f106116bb576101008083540402835291602001916116e6565b820191906000526020600020905b8154815290600101906020018083116116c957829003601f168201915b50505050508660060185815481106116fa57fe5b600091825260209182902001805460408051601f60026000196101006001871615020190941693909304928301859004850281018501909152818152928301828280156117885780601f1061175d57610100808354040283529160200191611788565b820191906000526020600020905b81548152906001019060200180831161176b57829003601f168201915b505050505086611c16565b6001016115f8565b50600282018190556040517f9a2e42fd6722813d69113e7d0079d3d940171428df7373df9c7f7617cfda289290610d7a9085908490613117565b7f8e25870c07e0b0b3884c78da52790939a455c275406c44ae8b434b692fb916ee81565b611801611f48565b5060008281526004602090815260408083206001600160a01b0385168452600c018252918290208251606081018452815460ff808216151583526101009091041615159281019290925260010154918101919091525b92915050565b60056118688261099d565b600781111561187357fe5b146118905760405162461bcd60e51b81526004016105b590612972565b6000818152600460205260408120600b8101805461ff001916610100179055905b60038201548110156119e6576000546004830180546001600160a01b0390921691630825f38f9190849081106118e357fe5b90600052602060002001548460030184815481106118fd57fe5b6000918252602090912001546004860180546001600160a01b03909216918690811061192557fe5b906000526020600020015486600501868154811061193f57fe5b9060005260206000200187600601878154811061195857fe5b9060005260206000200188600201546040518763ffffffff1660e01b8152600401611987959493929190612790565b6000604051808303818588803b1580156119a057600080fd5b505af11580156119b4573d6000803e3d6000fd5b50505050506040513d6000823e601f3d908101601f191682016040526119dd91908101906123b8565b506001016118b1565b507f712ae1383f79ac853f8d882153778e0260ef8f03b504e2866e0593e04d2b291f82604051611a169190612821565b60405180910390a15050565b6001611a2d8361099d565b6007811115611a3857fe5b14611a555760405162461bcd60e51b81526004016105b590612f3f565b60008281526004602090815260408083206001600160a01b0387168452600c8101909252909120805460ff1615611a9e5760405162461bcd60e51b81526004016105b590612a98565b600154600783015460405163782d6fe160e01b81526000926001600160a01b03169163782d6fe191611ad4918a91600401612697565b60206040518083038186803b158015611aec57600080fd5b505afa158015611b00573d6000803e3d6000fd5b505050506040513d601f19601f82011682018060405250810190611b2491906123a0565b90508315611b4457611b3a836009015482611bbe565b6009840155611b58565b611b5283600a015482611bbe565b600a8401555b8154600160ff19909116811761ff0019166101008615150217835582018190556040517f877856338e13f63d0c36822ff0ef736b80934cd90574a3a5bc9262c39d217c4690611bae90889088908890869061271c565b60405180910390a1505050505050565b600082820183811015611be35760405162461bcd60e51b81526004016105b590612c20565b9392505050565b600082821115611c0c5760405162461bcd60e51b81526004016105b590612f89565b50900390565b4690565b6000546040516001600160a01b039091169063f2b0653790611c449088908890889088908890602001612744565b604051602081830303815290604052805190602001206040518263ffffffff1660e01b8152600401611c769190612821565b60206040518083038186803b158015611c8e57600080fd5b505afa158015611ca2573d6000803e3d6000fd5b505050506040513d601f19601f82011682018060405250810190611cc69190612384565b15611ce35760405162461bcd60e51b81526004016105b590612d04565b600054604051633a66f90160e01b81526001600160a01b0390911690633a66f90190611d1b9088908890889088908890600401612744565b602060405180830381600087803b158015611d3557600080fd5b505af1158015611d49573d6000803e3d6000fd5b505050506040513d601f19601f82011682018060405250810190611d6d91906123a0565b505050505050565b604051806101a001604052806000815260200160006001600160a01b031681526020016000815260200160608152602001606081526020016060815260200160608152602001600081526020016000815260200160008152602001600081526020016000151581526020016000151581525090565b828054828255906000526020600020908101928215611e3f579160200282015b82811115611e3f57825182546001600160a01b0319166001600160a01b03909116178255602090920191600190910190611e0a565b50611e4b929150611f68565b5090565b828054828255906000526020600020908101928215611e8a579160200282015b82811115611e8a578251825591602001919060010190611e6f565b50611e4b929150611f87565b828054828255906000526020600020908101928215611ee3579160200282015b82811115611ee35782518051611ed3918491602090910190611f9c565b5091602001919060010190611eb6565b50611e4b929150612009565b828054828255906000526020600020908101928215611f3c579160200282015b82811115611f3c5782518051611f2c918491602090910190611f9c565b5091602001919060010190611f0f565b50611e4b929150612026565b604080516060810182526000808252602082018190529181019190915290565b5b80821115611e4b5780546001600160a01b0319168155600101611f69565b5b80821115611e4b5760008155600101611f88565b828054600181600116156101000203166002900490600052602060002090601f016020900481019282601f10611fdd57805160ff1916838001178555611e8a565b82800160010185558215611e8a5791820182811115611e8a578251825591602001919060010190611e6f565b80821115611e4b57600061201d8282612043565b50600101612009565b80821115611e4b57600061203a8282612043565b50600101612026565b50805460018160011615610100020316600290046000825580601f106120695750612087565b601f0160209004906000526020600020908101906120879190611f87565b50565b80356001600160a01b038116811461185757600080fd5b600082601f8301126120b1578081fd5b81356120c46120bf8261314c565b613125565b8181529150602080830190848101818402860182018710156120e557600080fd5b60005b8481101561210c576120fa888361208a565b845292820192908201906001016120e8565b505050505092915050565b600082601f830112612127578081fd5b81356121356120bf8261314c565b818152915060208083019084810160005b8481101561210c5761215d888484358a0101612225565b84529282019290820190600101612146565b600082601f83011261217f578081fd5b813561218d6120bf8261314c565b818152915060208083019084810160005b8481101561210c576121b5888484358a0101612225565b8452928201929082019060010161219e565b600082601f8301126121d7578081fd5b81356121e56120bf8261314c565b81815291506020808301908481018184028601820187101561220657600080fd5b60005b8481101561210c57813584529282019290820190600101612209565b600082601f830112612235578081fd5b81356122436120bf8261316c565b915080825283602082850101111561225a57600080fd5b8060208401602084013760009082016020015292915050565b600060208284031215612284578081fd5b611be3838361208a565b600080604083850312156122a0578081fd5b6122aa848461208a565b946020939093013593505050565b600080600080600060a086880312156122cf578081fd5b853567ffffffffffffffff808211156122e6578283fd5b6122f289838a016120a1565b96506020880135915080821115612307578283fd5b61231389838a016121c7565b95506040880135915080821115612328578283fd5b61233489838a0161216f565b94506060880135915080821115612349578283fd5b61235589838a01612117565b9350608088013591508082111561236a578283fd5b5061237788828901612225565b9150509295509295909350565b600060208284031215612395578081fd5b8151611be3816131c8565b6000602082840312156123b1578081fd5b5051919050565b6000602082840312156123c9578081fd5b815167ffffffffffffffff8111156123df578182fd5b8201601f810184136123ef578182fd5b80516123fd6120bf8261316c565b818152856020838501011115612411578384fd5b61242282602083016020860161319c565b95945050505050565b60006020828403121561243c578081fd5b5035919050565b60008060408385031215612455578182fd5b82359150612466846020850161208a565b90509250929050565b60008060408385031215612481578182fd5b823591506020830135612493816131c8565b809150509250929050565b600080600080600060a086880312156124b5578283fd5b8535945060208601356124c7816131c8565b9350604086013560ff811681146124dc578384fd5b94979396509394606081013594506080013592915050565b6000815180845260208085019450808401835b8381101561252c5781516001600160a01b031687529582019590820190600101612507565b509495945050505050565b6000815180845260208085018081965082840281019150828601855b8581101561257d57828403895261256b8483516125b9565b98850198935090840190600101612553565b5091979650505050505050565b6000815180845260208085019450808401835b8381101561252c5781518752958201959082019060010161259d565b600081518084526125d181602086016020860161319c565b601f01601f19169290920160200192915050565b6000815460018082166000811461260357600181146126215761265f565b60028304607f16865260ff198316602087015260408601935061265f565b6002830480875261263186613190565b60005b828110156126555781546020828b0101528482019150602081019050612634565b8801602001955050505b50505092915050565b61190160f01b81526002810192909252602282015260420190565b6001600160a01b0391909116815260200190565b6001600160a01b03929092168252602082015260400190565b600060018060a01b038616825284602083015260a06040830152601860a08301527f73657450656e64696e6741646d696e286164647265737329000000000000000060c083015260e0606083015261270b60e08301856125b9565b905082608083015295945050505050565b6001600160a01b03949094168452602084019290925215156040830152606082015260800190565b600060018060a01b038716825285602083015260a0604083015261276b60a08301866125b9565b828103606084015261277d81866125b9565b9150508260808301529695505050505050565b600060018060a01b038716825285602083015260a060408301526127b760a08301866125e5565b828103606084015261277d81866125e5565b6000608082526127dc60808301876124f4565b82810360208401526127ee818761258a565b905082810360408401526128028186612537565b905082810360608401526128168185612537565b979650505050505050565b90815260200190565b938452602084019290925260408301526001600160a01b0316606082015260800190565b92835260208301919091521515604082015260600190565b93845260ff9290921660208401526040830152606082015260800190565b602081016008831061289257fe5b91905290565b600060208252611be360208301846125b9565b60208082526039908201527f476f7665726e6f72416c7068613a3a5f5f61636365707441646d696e3a20736560408201527f6e646572206d75737420626520676f7620677561726469616e00000000000000606082015260800190565b60208082526044908201527f476f7665726e6f72416c7068613a3a71756575653a2070726f706f73616c206360408201527f616e206f6e6c79206265207175657565642069662069742069732073756363656060820152631959195960e21b608082015260a00190565b60208082526045908201527f476f7665726e6f72416c7068613a3a657865637574653a2070726f706f73616c60408201527f2063616e206f6e6c7920626520657865637574656420696620697420697320716060820152641d595d595960da1b608082015260a00190565b6020808252604c908201527f476f7665726e6f72416c7068613a3a5f5f6578656375746553657454696d656c60408201527f6f636b50656e64696e6741646d696e3a2073656e646572206d7573742062652060608201526b33b7bb1033bab0b93234b0b760a11b608082015260a00190565b60208082526029908201527f476f7665726e6f72416c7068613a3a73746174653a20696e76616c69642070726040820152681bdc1bdcd85b081a5960ba1b606082015260800190565b6020808252602d908201527f476f7665726e6f72416c7068613a3a5f63617374566f74653a20766f7465722060408201526c185b1c9958591e481d9bdd1959609a1b606082015260800190565b60208082526059908201527f476f7665726e6f72416c7068613a3a70726f706f73653a206f6e65206c69766560408201527f2070726f706f73616c207065722070726f706f7365722c20666f756e6420616e60608201527f20616c72656164792070656e64696e672070726f706f73616c00000000000000608082015260a00190565b6020808252604a908201527f476f7665726e6f72416c7068613a3a5f5f717565756553657454696d656c6f6360408201527f6b50656e64696e6741646d696e3a2073656e646572206d75737420626520676f6060820152693b1033bab0b93234b0b760b11b608082015260a00190565b60208082526028908201527f476f7665726e6f72416c7068613a3a70726f706f73653a20746f6f206d616e7960408201526720616374696f6e7360c01b606082015260800190565b6020808252601190820152706164646974696f6e206f766572666c6f7760781b604082015260600190565b60208082526044908201527f476f7665726e6f72416c7068613a3a70726f706f73653a2070726f706f73616c60408201527f2066756e6374696f6e20696e666f726d6174696f6e206172697479206d69736d6060820152630c2e8c6d60e31b608082015260a00190565b6020808252602f908201527f476f7665726e6f72416c7068613a3a63616e63656c3a2070726f706f7365722060408201526e18589bdd99481d1a1c995cda1bdb19608a1b606082015260800190565b60208082526044908201527f476f7665726e6f72416c7068613a3a5f71756575654f725265766572743a207060408201527f726f706f73616c20616374696f6e20616c7265616479207175657565642061746060820152632065746160e01b608082015260a00190565b6020808252602c908201527f476f7665726e6f72416c7068613a3a70726f706f73653a206d7573742070726f60408201526b7669646520616374696f6e7360a01b606082015260800190565b6020808252603f908201527f476f7665726e6f72416c7068613a3a70726f706f73653a2070726f706f73657260408201527f20766f7465732062656c6f772070726f706f73616c207468726573686f6c6400606082015260800190565b6020808252602f908201527f476f7665726e6f72416c7068613a3a63617374566f746542795369673a20696e60408201526e76616c6964207369676e617475726560881b606082015260800190565b60208082526058908201527f476f7665726e6f72416c7068613a3a70726f706f73653a206f6e65206c69766560408201527f2070726f706f73616c207065722070726f706f7365722c20666f756e6420616e60608201527f20616c7265616479206163746976652070726f706f73616c0000000000000000608082015260a00190565b60208082526036908201527f476f7665726e6f72416c7068613a3a63616e63656c3a2063616e6e6f742063616040820152751b98d95b08195e1958dd5d1959081c1c9bdc1bdcd85b60521b606082015260800190565b6020808252602a908201527f476f7665726e6f72416c7068613a3a5f63617374566f74653a20766f74696e67604082015269081a5cc818db1bdcd95960b21b606082015260800190565b6020808252601590820152747375627472616374696f6e20756e646572666c6f7760581b604082015260600190565b60208082526036908201527f476f7665726e6f72416c7068613a3a5f5f61626469636174653a2073656e6465604082015275391036bab9ba1031329033b7bb1033bab0b93234b0b760511b606082015260800190565b8151151581526020808301511515908201526040918201519181019190915260600190565b8981526001600160a01b03891660208201526101206040820181905260009061305e8382018b6124f4565b90508281036060840152613072818a61258a565b905082810360808401526130868189612537565b905082810360a084015261309a8188612537565b90508560c08401528460e08401528281036101008401526130bb81856125b9565b9c9b505050505050505050505050565b9889526001600160a01b0397909716602089015260408801959095526060870193909352608086019190915260a085015260c0840152151560e083015215156101008201526101200190565b918252602082015260400190565b60405181810167ffffffffffffffff8111828210171561314457600080fd5b604052919050565b600067ffffffffffffffff821115613162578081fd5b5060209081020190565b600067ffffffffffffffff821115613182578081fd5b50601f01601f191660200190565b60009081526020902090565b60005b838110156131b757818101518382015260200161319f565b838111156111395750506000910152565b801515811461208757600080fdfea26469706673582212200a7adc578ea490e7066f480d6a04a9b4502884a7e579a57d4512a931fe5792ce64736f6c634300060c0033",
  "linkReferences": {},
  "deployedLinkReferences": {}
}